:100200000C9450010C946D010C946D010C946D01D3
:100210000C946D010C946D010C946D010C946D01A6
:100220000C946D010C946D010C946D010C946D0196
:100230000C946D010C946D010C946D010C946D0186
:100240000C946D010C946D010C946D010C946D0176
:100250000C946D010C946D010C946D010C946D0166
:100260000C946D010C946D010C946D010C946D0156
:100270000C946D010C946D010C946D010C946D0146
:100280000C946D010C946D010C946D010C946D0136
:100290000C9434020C946D010C946D010C946D015E
:1002A00011241FBECFEFCDBFDFE3DEBF18E2A0E019
:1002B000B8E2E2EEF7E002C005900D92A430B1077B
:1002C000D9F728E2A4E0B8E201C01D92A631B20736
:1002D000E1F70E9498020C949D030C94000190E0B9
:1002E000FC01E754F84B20812F3F51F08057984B89
:1002F000DC01EC91B0E2EB9FF0011124FC5F218363
:10030000089590E0FC01E754F84B40814F3F09F419
:100310004CC0FC01E25CF84BE081EE2329F0E130B7
:1003200099F010F0E63010F1FC01E057F84BE08155
:10033000A0E2EA9FF0011124FC5F2081242311F147
:10034000672BF1F446830895E091010ADC01A95975
:10035000B84B5C915C5F21E030E001C0220F5A9500
:10036000EAF720952E232093010ADECF20E1E29FB9
:10037000F0011124E05AF54F21812F7E2183D4CF43
:10038000458308958959984BDC018C91309771F021
:100390008F3F61F07096E80FF11D9FB7F894808150
:1003A000672B39F4877F80839FBF0895F0E0E0E0FA
:1003B000F4CF8860F8CFCF93DF938FB7F894209174
:1003C0000A2830910B2840910C2850910D28E0917B
:1003D000BA0A9091B60A90FF06C02F5F3F4F4F4F69
:1003E0005F4FE091BA0A8FBFA0911428B0911528F1
:1003F000C0911228D09113280E948303EC9F900192
:10040000ED9F300D1124620F731F811D911DDF912F
:10041000CF910895CF92DF92EF92FF920E94DB017D
:100420006B017C0120E4C20E22E4D21E2FE0E21E0A
:10043000F11C80E4C81682E4D8068FE0E806F104D7
:1004400038F40E94DB01C616D706E806F906C8F3A1
:100450000E94DB016C157D058E059F05C8F3FF909A
:10046000EF90DF90CF9008951F920F920FB60F92EA
:1004700011242F933F934F935F936F937F938F93A9
:100480009F93AF93BF9340910628509107286091A6
:1004900008287091092880910428909105282091BE
:1004A000102830911128420F531F611D711D20919A
:1004B0000E2830910F28820F931F883E23E0920769
:1004C00030F0885E93404F5F5F4F6F4F7F4F809358
:1004D000042890930528409306285093072860939A
:1004E00008287093092880910A2890910B28A091E0
:1004F0000C28B0910D280196A11DB11D80930A28EA
:1005000090930B28A0930C28B0930D2881E0809342
:10051000B60ABF91AF919F918F917F916F915F913B
:100520004F913F912F910F900FBE0F901F901895F4
:1005300088ED90E084BF9093610080E094E2A4EFA6
:10054000B0E08093002890930128A0930228B093F4
:10055000032880910206866080930206809100063F
:10056000816080930006809102068F7C8093020652
:100570008091A0008F788093A00080910206806116
:10058000809302061092E20581E08093E40583E007
:100590008093010A8FEF90E08093260A9093270AB8
:1005A00080E890E08093380A9093390A80933A0A61
:1005B00090933B0A80933C0A90933D0A8BE0809392
:1005C000000A8091E50581608093E5058091E5054D
:1005D00082608093E505E0E8FAE037E02FEF90E8ED
:1005E00085E031832487958780837096E03C4AE0DC
:1005F000F407B9F780E094E08093142890931528CD
:1006000080911428909115282FEF30E0B9010E94B5
:100610006F0360931228709313288091142890918F
:100620001528E8EEF3E0BF010E946F0360931028E5
:10063000709311288091142890911528BF010E9471
:100640006F0380930E2890930F282093BC0A309359
:10065000BD0A8091B50A81608093B50A84E08093D9
:10066000B00A8091B00A81608093B00A78948CE1DE
:100670000E946F0161E070E08CE10E9481018DE1D8
:100680000E946F0161E070E08DE10E94810183E2D0
:100690000E946F0161E070E083E20E9481018EE1BF
:1006A0000E946F0161E070E08EE10E94810189E1AA
:1006B0000E946F01C0E0D0E061E070E089E10E943B
:1006C00081010E940A0270E060E089E10E948101DC
:1006D0000E940A02209781F30E940000EDCFAA1B1E
:1006E000BB1B51E107C0AA1FBB1FA617B70710F01D
:1006F000A61BB70B881F991F5A95A9F7809590954F
:10070000BC01CD0108950E948E03A59F900DB49F5A
:10071000900DA49F800D911D11240895A29FB001FA
:10072000B39FC001A39F700D811D1124911DB29F25
:0E073000700D811D1124911D0895F894FFCFC6
:10073E0000000003000102000001010000000000A3
:10074E00000000000000000000000000000000009B
:10075E000000000000000000000504000506020471
:10076E00010300010001020001020304050203035C
:10077E000504060504060703070001020203000133
:10078E00070602020005020105000401010404042B
:10079E000303030303030000020000030101000032
:1007AE000102020202050505050305201001204085
:1007BE0004100208010201020401020408102004C0
:1007CE000808201040201040800880010204040810
:0407DE000102804054
:0407E2000024F400FB
:0400000300000200F7
:00000001FF
